{
  "contractName": "Lottery",
  "abi": [
    {
      "inputs": [],
      "stateMutability": "nonpayable",
      "type": "constructor"
    },
    {
      "inputs": [],
      "name": "manager",
      "outputs": [
        {
          "internalType": "address",
          "name": "",
          "type": "address"
        }
      ],
      "stateMutability": "view",
      "type": "function",
      "constant": true
    },
    {
      "inputs": [
        {
          "internalType": "uint256",
          "name": "",
          "type": "uint256"
        }
      ],
      "name": "players",
      "outputs": [
        {
          "internalType": "address payable",
          "name": "",
          "type": "address"
        }
      ],
      "stateMutability": "view",
      "type": "function",
      "constant": true
    },
    {
      "inputs": [],
      "name": "winner",
      "outputs": [
        {
          "internalType": "address payable",
          "name": "",
          "type": "address"
        }
      ],
      "stateMutability": "view",
      "type": "function",
      "constant": true
    },
    {
      "stateMutability": "payable",
      "type": "receive",
      "payable": true
    },
    {
      "inputs": [],
      "name": "getBalance",
      "outputs": [
        {
          "internalType": "uint256",
          "name": "",
          "type": "uint256"
        }
      ],
      "stateMutability": "view",
      "type": "function",
      "constant": true
    },
    {
      "inputs": [],
      "name": "pickWinner",
      "outputs": [],
      "stateMutability": "nonpayable",
      "type": "function"
    },
    {
      "inputs": [],
      "name": "getPlayers",
      "outputs": [
        {
          "internalType": "address payable[]",
          "name": "",
          "type": "address[]"
        }
      ],
      "stateMutability": "view",
      "type": "function",
      "constant": true
    }
  ],
  "bytecode": "0x608060405234801561001057600080fd5b5033600160006101000a81548173ffffffffffffffffffffffffffffffffffffffff021916908373ffffffffffffffffffffffffffffffffffffffff160217905550610f2c806100616000396000f3fe6080604052600436106100595760003560e01c806312065fe0146101f0578063481c6a751461021b5780635d495aea146102465780638b5b9ccc1461025d578063dfbf53ae14610288578063f71d96cb146102b3576101eb565b366101eb57600160009054906101000a900473ffffffffffffffffffffffffffffffffffffffff1673ffffffffffffffffffffffffffffffffffffffff163373ffffffffffffffffffffffffffffffffffffffff16036100ee576040517f08c379a00000000000000000000000000000000000000000000000000000000081526004016100e5906108f7565b60405180910390fd5b600015156100fa6102f0565b15151461013c576040517f08c379a000000000000000000000000000000000000000000000000000000000815260040161013390610963565b60405180910390fd5b670de0b6b3a7640000341015610187576040517f08c379a000000000000000000000000000000000000000000000000000000000815260040161017e906109cf565b60405180910390fd5b6000339080600181540180825580915050600190039060005260206000200160009091909190916101000a81548173ffffffffffffffffffffffffffffffffffffffff021916908373ffffffffffffffffffffffffffffffffffffffff1602179055005b600080fd5b3480156101fc57600080fd5b5061020561039c565b6040516102129190610a08565b60405180910390f35b34801561022757600080fd5b50610230610434565b60405161023d9190610a64565b60405180910390f35b34801561025257600080fd5b5061025b61045a565b005b34801561026957600080fd5b506102726106a0565b60405161027f9190610b4f565b60405180910390f35b34801561029457600080fd5b5061029d61072e565b6040516102aa9190610b80565b60405180910390f35b3480156102bf57600080fd5b506102da60048036038101906102d59190610bcc565b610754565b6040516102e79190610b80565b60405180910390f35b600080600090505b600080549050811015610393573373ffffffffffffffffffffffffffffffffffffffff16600082815481106103305761032f610bf9565b5b9060005260206000200160009054906101000a900473ffffffffffffffffffffffffffffffffffffffff1673ffffffffffffffffffffffffffffffffffffffff1603610380576001915050610399565b808061038b90610c57565b9150506102f8565b50600090505b90565b6000600160009054906101000a900473ffffffffffffffffffffffffffffffffffffffff1673ffffffffffffffffffffffffffffffffffffffff163373ffffffffffffffffffffffffffffffffffffffff161461042e576040517f08c379a000000000000000000000000000000000000000000000000000000000815260040161042590610d11565b60405180910390fd5b47905090565b600160009054906101000a900473ffffffffffffffffffffffffffffffffffffffff1681565b600160009054906101000a900473ffffffffffffffffffffffffffffffffffffffff1673ffffffffffffffffffffffffffffffffffffffff163373ffffffffffffffffffffffffffffffffffffffff16146104ea576040517f08c379a00000000000000000000000000000000000000000000000000000000081526004016104e190610d7d565b60405180910390fd5b60036000805490501015610533576040517f08c379a000000000000000000000000000000000000000000000000000000000815260040161052a90610de9565b60405180910390fd5b60008080549050610542610793565b61054c9190610e38565b90506000818154811061056257610561610bf9565b5b9060005260206000200160009054906101000a900473ffffffffffffffffffffffffffffffffffffffff16600260006101000a81548173ffffffffffffffffffffffffffffffffffffffff021916908373ffffffffffffffffffffffffffffffffffffffff160217905550600260009054906101000a900473ffffffffffffffffffffffffffffffffffffffff1673ffffffffffffffffffffffffffffffffffffffff166108fc61061161039c565b9081150290604051600060405180830381858888f1935050505015801561063c573d6000803e3d6000fd5b50600067ffffffffffffffff81111561065857610657610e69565b5b6040519080825280602002602001820160405280156106865781602001602082028036833780820191505090505b506000908051906020019061069c9291906107cd565b5050565b6060600080548060200260200160405190810160405280929190818152602001828054801561072457602002820191906000526020600020905b8160009054906101000a900473ffffffffffffffffffffffffffffffffffffffff1673ffffffffffffffffffffffffffffffffffffffff16815260200190600101908083116106da575b5050505050905090565b600260009054906101000a900473ffffffffffffffffffffffffffffffffffffffff1681565b6000818154811061076457600080fd5b906000526020600020016000915054906101000a900473ffffffffffffffffffffffffffffffffffffffff1681565b600042446000805490506040516020016107af93929190610eb9565b6040516020818303038152906040528051906020012060001c905090565b828054828255906000526020600020908101928215610846579160200282015b828111156108455782518260006101000a81548173ffffffffffffffffffffffffffffffffffffffff021916908373ffffffffffffffffffffffffffffffffffffffff160217905550916020019190600101906107ed565b5b5090506108539190610857565b5090565b5b80821115610870576000816000905550600101610858565b5090565b600082825260208201905092915050565b7f6d616e616765722063616e206e6f7420656e74657220746865206c6f7474657260008201527f7900000000000000000000000000000000000000000000000000000000000000602082015250565b60006108e1602183610874565b91506108ec82610885565b604082019050919050565b60006020820190508181036000830152610910816108d4565b9050919050565b7f796f75206861766520616c7265647920656e7472656400000000000000000000600082015250565b600061094d601683610874565b915061095882610917565b602082019050919050565b6000602082019050818103600083015261097c81610940565b9050919050565b7f6d696e20616d6f756e74206d7573742062652070616964000000000000000000600082015250565b60006109b9601783610874565b91506109c482610983565b602082019050919050565b600060208201905081810360008301526109e8816109ac565b9050919050565b6000819050919050565b610a02816109ef565b82525050565b6000602082019050610a1d60008301846109f9565b92915050565b600073ffffffffffffffffffffffffffffffffffffffff82169050919050565b6000610a4e82610a23565b9050919050565b610a5e81610a43565b82525050565b6000602082019050610a796000830184610a55565b92915050565b600081519050919050565b600082825260208201905092915050565b6000819050602082019050919050565b6000610ab682610a23565b9050919050565b610ac681610aab565b82525050565b6000610ad88383610abd565b60208301905092915050565b6000602082019050919050565b6000610afc82610a7f565b610b068185610a8a565b9350610b1183610a9b565b8060005b83811015610b42578151610b298882610acc565b9750610b3483610ae4565b925050600181019050610b15565b5085935050505092915050565b60006020820190508181036000830152610b698184610af1565b905092915050565b610b7a81610aab565b82525050565b6000602082019050610b956000830184610b71565b92915050565b600080fd5b610ba9816109ef565b8114610bb457600080fd5b50565b600081359050610bc681610ba0565b92915050565b600060208284031215610be257610be1610b9b565b5b6000610bf084828501610bb7565b91505092915050565b7f4e487b7100000000000000000000000000000000000000000000000000000000600052603260045260246000fd5b7f4e487b7100000000000000000000000000000000000000000000000000000000600052601160045260246000fd5b6000610c62826109ef565b91507fffffffffffffffffffffffffffffffffffffffffffffffffffffffffffffffff8203610c9457610c93610c28565b5b600182019050919050565b7f6f6e6c79206d616e616765722063616e2063686561636b2074686520626c616160008201527f6e63650000000000000000000000000000000000000000000000000000000000602082015250565b6000610cfb602383610874565b9150610d0682610c9f565b604082019050919050565b60006020820190508181036000830152610d2a81610cee565b9050919050565b7f6f6e6c79206d616e616765722063616e207069636b207468652077696e6e6572600082015250565b6000610d67602083610874565b9150610d7282610d31565b602082019050919050565b60006020820190508181036000830152610d9681610d5a565b9050919050565b7f6d696e203320706c61796572732073686f756c6420656e746572000000000000600082015250565b6000610dd3601a83610874565b9150610dde82610d9d565b602082019050919050565b60006020820190508181036000830152610e0281610dc6565b9050919050565b7f4e487b7100000000000000000000000000000000000000000000000000000000600052601260045260246000fd5b6000610e43826109ef565b9150610e4e836109ef565b925082610e5e57610e5d610e09565b5b828206905092915050565b7f4e487b7100000000000000000000000000000000000000000000000000000000600052604160045260246000fd5b6000819050919050565b610eb3610eae826109ef565b610e98565b82525050565b6000610ec58286610ea2565b602082019150610ed58285610ea2565b602082019150610ee58284610ea2565b60208201915081905094935050505056fea264697066735822122015f33fb8ac663e88b88b2cd268107d8c3a954df6e3b77e97549ee2fa0e95201064736f6c63430008110033",
  "immutableReferences": {},
  "source": "//SPDX-License-Identifier: MIT\r\npragma solidity^0.8.13;\r\n\r\ncontract Lottery{\r\n    address payable[] public players;\r\n    address public manager;\r\n    address payable public winner;\r\n\r\n    constructor(){\r\n        manager = msg.sender;\r\n    }\r\n\r\n    function alreadyEntred() private view returns(bool){\r\n        for(uint i = 0; i<players.length;i++){\r\n            if(players[i] == msg.sender){\r\n                return true;\r\n            }\r\n        }\r\n        return false;\r\n    }\r\n\r\n    receive() external payable {\r\n        require(msg.sender != manager, \"manager can not enter the lottery\");\r\n        require(alreadyEntred() == false, \"you have alredy entred\");\r\n        require(msg.value >= 1 ether, \"min amount must be paid\");\r\n        players.push(payable(msg.sender));\r\n    }\r\n\r\n    function random() private view returns(uint256){\r\n        return uint256(keccak256(abi.encodePacked(block.timestamp, block.difficulty, players.length)));\r\n    }\r\n\r\n    function getBalance() public view returns(uint256){\r\n        require(msg.sender == manager, \"only manager can cheack the blaance\");\r\n        return address(this).balance;\r\n    }\r\n\r\n    function pickWinner() external {\r\n        require(msg.sender == manager, \"only manager can pick the winner\");\r\n        require(players.length >= 3,\"min 3 players should enter\");\r\n        uint index = random() % players.length;\r\n        winner = players[index];\r\n        winner.transfer(getBalance());\r\n        players = new address payable[](0);\r\n    }\r\n\r\n    function getPlayers() public view returns(address payable[] memory){\r\n        return players;\r\n    } \r\n}\r\n\r\n\r\n\r\n//   0x64bBdfe9EbD4b9F0a8e01A40240a51ff53B89Ace\r\n\r\n// ganache - 0x2dE503eE420a2200941aE9fC374991d02A644b62",
  "sourcePath": "C:\\Users\\maruti nandan tiwari\\Desktop\\lottery\\contracts\\Lottery.sol",
  "compiler": {
    "name": "solc",
    "version": "0.8.17+commit.8df45f5f.Emscripten.clang"
  },
  "schemaVersion": "3.4.10",
  "updatedAt": "2022-10-02T08:40:13.274Z",
  "networkType": "ethereum",
  "devdoc": {
    "kind": "dev",
    "methods": {},
    "version": 1
  },
  "userdoc": {
    "kind": "user",
    "methods": {},
    "version": 1
  }
}